:020000040000FA
:10000000D8040020353A0000111800001318000031
:100010001518000017180000191800000000000053
:100020000000000000000000000000001B1800009D
:100030001D180000000000001F180000211800001B
:1000400023180000251800002718000029180000B8
:100050002B1800002D1800002F1800003318000086
:100060003718000039180000471800004918000030
:100070006118000063180000651800006718000090
:10008000691800006B1800006D1800006F18000060
:10009000711800007D1800007F1800008118000012
:1000A00083180000851800008718000089180000D8
:1000B0008B1800008D1800008F18000091180000A8
:1000C0009318000095180000971800009918000078
:1000D0009B1800009D1800009F180000A118000048
:1000E000A3180000A5180000A7180000A918000018
:1000F000AB180000AD180000AF180000B1180000E8
:10010000B3180000B5180000B7180000B9180000B7
:10011000BB180000BD180000BF180000C118000087
:10012000C3180000C5180000C7180000C918000057
:10013000CB180000CD180000CF180000D118000027
:10014000D7180000D9180000DB180000DD180000E7
:10015000DF180000E1180000E3180000E5180000B7
:10016000E7180000E9180000EB180000ED18000087
:10017000EF180000F1180000F3180000F518000057
:10018000F71800001F210000432100006721000034
:10019000F9180000FB180000FD180000FF1800000F
:1001A00001190000031900000519000007190000DB
:1001B000091900000B1900002B2500000D19000083
:1001C00000F002F800F044F80AA090E8000C824425
:1001D0008344AAF10107DA4501D100F039F8AFF202
:1001E000090EBAE80F0013F0010F18BFFB1A43F015
:1001F000010318474041000060410000103A24BF4D
:1002000078C878C1FAD8520724BF30C830C144BF7B
:1002100004680C60704700000023002400250026BD
:10022000103A28BF78C1FBD8520728BF30C148BF59
:100230000B607047642903F02385782903F05C85FF
:10024000002070471FB503F0E0FE1FBD10B510BDC4
:1002500003F0A1FE1146FFF7F5FF00F0B1FF03F038
:10026000BFFE03B4FFF7F2FF03BC03F0C7FE0000BC
:100270004148002280F8D4200270427060303F492B
:1002800081604160016040F21E51C18240F26661AE
:1002900081820283418B21F40051418338490166F8
:1002A00047F2FB41416681663649416241F6705131
:1002B00081623549C162016341634FF49671818760
:1002C00001874FF4FA7141870A21C18741F28F21DA
:1002D000018440F6CC4141842C49C16602654FF44B
:1002E0003041C16440F2333141650821C16543F2B8
:1002F0003331816526490164416447F23331A0F806
:100300004810704770B51C4C224E304600F0A8FFD4
:10031000C0B1B4F8540040F40040A4F854001E48A2
:1003200000250068A8B1C003C82190FBF1F00004CB
:10033000206702F0CAF970B134F87A0F40F4004037
:10034000208070BDB4F8540020F40040A4F854009C
:10035000E5E72567EDE75434E08C20F40040E084C5
:100360002580304600F07CFF0128EAD13046BDE808
:10037000704000F07CBF0000980000200000F07F7B
:10038000175D0100FD50D30FB88D0600FA5E6C07B3
:100390009999995900610F400000002030B58BB049
:1003A00004462C22F1A1684603F0D2FCFA4D2078D5
:1003B000297888420BD001F0C5FD40B122782A701F
:1003C000F6A1684603F014FC684601F0C6FDB4F8D7
:1003D0007A004FF00001000402D4217061703EE009
:1003E000B4F8540018B106202070617037E0B4F8FA
:1003F0007C004FF00102000402D4227061702EE0F4
:100400002078012802D16378042B02D0022804D07E
:1004100006E002202070617021E06378042B02D096
:10042000032804D006E003202070617017E0637891
:10043000042B02D0042804D006E004202070617050
:100440000DE06378042B02D0052804D007E00520D6
:100450002070617003E0606808B92270617034F840
:100460007A0F60800BB030BD10B504462C34B4F860
:100470004E00618D820B62F38E31400B60F34D3183
:100480006185B4F90E10B4F90A0000F0B8FA01461B
:10049000208260690904091A00EB611060612188FB
:1004A00060680904091A00EB6110606010BD08B5AE
:1004B000017800291DD1417800291AD1012141700C
:1004C000BDF8001021F4806121F4006121F4805115
:1004D00021F48041009172B6BDF80010A0F85810C8
:1004E00000218170818481624160816062B6016116
:1004F000416108BD08B50178062917D14178002966
:1005000014D1BDF8001021F4806121F4006121F4C0
:10051000805121F48041009172B6BDF80010A0F81E
:1005200058100821817062B60121417008BD017820
:10053000012916D1417811B1012912D107E072B613
:100540000121817062B60022C0F8D02041709C3039
:10055000416B491C416330F89C29914201D304212D
:1005600041707047F8B50178022912D1417804250D
:100570000226002471B101292DD0022909D1D0F819
:10058000D010491CC0F8D010B0F89A20914200D386
:100590004570F8BDBDF8001021F4806121F40061C0
:1005A00021F4805121F48041009172B6BDF8001011
:1005B000A0F8581090F8D410012912D08670446425
:1005C00062B6C0F8D040446044610461B0F878106D
:1005D000818401214170B0F97410002905DB0A46BD
:1005E00005E04FF003018170E9E7C1F100024FEA35
:1005F0000243B0F89820076993FBF2F33B44036190
:1006000001DB0F4601E0C1F10007B3EB074F06DD48
:10061000002901DB0B4600E04B421B04036190F80C
:10062000D430012B0AD1D0F88430D0F844C093FBE9
:10063000F2F7674447649F4200DD4364D0F8D0304E
:100640005B1CC0F8D0309342A3D3002900DA4942A2
:1006500009040161D0F8841041641AB1C0F8D04097
:100660004670F8BD4570F8BD884201D10846704714
:1006700000280DDB884205DA82FA80F08142F6DC40
:100680000846704783FAA0F08142FADB08467047BB
:10069000884205DD82FAA0F08142F8DB0846704707
:1006A00083FA80F08142FADC0846704738B5044688
:1006B0002078032858D16078042120B1012823D064
:1006C000042851D148E0BDF8000040F4806020F4D7
:1006D000006020F4805040F48040009072B6BDF875
:1006E0000000A4F8580094F8D400012811D0A1709B
:1006F00000206061B4F97400002800DA4042000470
:10070000206162B60120607094F8D400012803D003
:1007100018E00520A070EBE7B4F90600021E00DA2D
:100720004042B4F9823098420BDA100000D54042C2
:10073000D4F8882050434000D4F8842010446064EA
:1007400000E0A170B4F90600002800DA4042B4F9D4
:100750008020904200DB6170D4F88C20216F13461A
:100760006068FFF781FF606038BD00002020202016
:100770002020202020202020202020202020202079
:100780002020202020202020202020202020202069
:1007900020202020202020000400002074656D709F
:1007A0005374617465203D2025640D0A000000002B
:1007B0002DE9F84304462078042828D16078524F68
:1007C000002630B301283AD0022820D12661B4F99E
:1007D0007600002800DA404200046061B4F972102B
:1007E000002901DA40426061D4F88C20216F134661
:1007F0006068FFF739FF6060D4F8D000401CC4F88F
:10080000D000B4F89E10884201D304206070BDE887
:10081000F883012060703E60BDF8000040F4806005
:1008200040F4006020F4805040F48040009072B6A4
:10083000BDF80000A4F858000620A07062B6386821
:10084000D4F8CC10084438604FF08048404501DDB2
:10085000C7F80080B7F9020000F000FBB4F874108C
:1008600010FB01F04500B7F9020000F0BBFAB4F844
:10087000761010FB01F04000002D00DA6D420028D8
:1008800000DA4042B4F97210002900DA404272B630
:100890002561606162B6D4F88C20216F13466068D0
:1008A000FFF7E2FE606038684045B0DBC4F8D06016
:1008B00002206070ABE738B504462078052822D1C5
:1008C000607810B101281ED114E0BDF8000040F49A
:1008D000806040F4006040F4805040F4804000901C
:1008E00072B6BDF80000A4F858000720A07062B6E8
:1008F00001206070D4E92423216F6068FFF7B4FE03
:100900006060002020612FE70800002010B50B4632
:1009100000224FF4004400E0521C43FA02F1A142CD
:10092000FADA13414343521C03FA02F010BD0246A7
:100930005018002A06DD002904DD002802DA6FF0D5
:1009400000407047002AFCDA0029FADA0028F8DDB6
:100950004FF0004070472DE9F04101460124C217D5
:100960006307C31A72F1000301DA810002244FF019
:100970000063C31A72F1000301DA010104244FF08D
:100980000073C31A72F1000301DA810108244FF4E5
:100990000003C31A72F1000301DA010210244FF4BC
:1009A0000013C31A72F1000301DA810220244FF40C
:1009B0000023C31A72F1000201DA010340240E0E73
:1009C00000234FF08078084642461F46194603F040
:1009D000EBF8134830F81650761C30F81600002358
:1009E000401B50434246194603F0DEF84019794156
:1009F0002246002303F0D8F80004BDE8F08110B5CA
:100A00004943404349004000FFF791FFFFF7A3FF30
:100A100000144DF6B251FFF779FF001410BD00002D
:100A20001440000070B5B0F858204FF00005510494
:100A30005ED5B0F91C30D0F8C01059434900B0F968
:100A40000A30D0F8C44063434FF4004404EB43033E
:100A50001B14C48B14FB03F35B00446B611A194431
:100A600001F500410914A0F84810D0F8B0304B430C
:100A70005B00B0F90640002C04DBC66C83FAA6F3D9
:100A8000C36403E0C66C83FA86F3C364D0F8AC3069
:100A90004B435900002C04DBC36C81FAA3F10165C0
:100AA00003E0C36C81FA83F10165036D416883FA49
:100AB00081F3140505D5B0F85610490404D48360B9
:100AC00002E08160C564056551050DD5B0F856108A
:100AD000490408D4B0F90A10D0F8B4205143826A0E
:100AE00002EB4101816270BD818C0904816270BD9D
:100AF000818C09048162A0F8485070BD10B5B0F82F
:100B00005810CA04D0F8A0102AD5D0E9012383FADE
:100B1000A2F212148281D0F8BC3053435B00046A05
:100B200083FA84F303628B4201DD016203E04C42ED
:100B3000A34200DA0462D0F8B83053435A00036A83
:100B400082FA83F2914202DA091441831EE049429B
:100B5000914202DD0914418318E01114418315E02C
:100B60004269002A01DB134600E053428B420ADB54
:100B7000002A03DB0A144283016207E049420A1497
:100B80004283016202E0C18A418302620169002955
:100B900001DB0B4600E04B42D0F8A420934208DB77
:100BA000002902DB1114018310BD51420914018395
:100BB00010BD418A018310BD2DE9FF4104460F4657
:100BC0002078002827D1012F27D01E4D01A80090A2
:100BD00002AB03AA3946284600F074FB206E039945
:100BE000C0EB014100EB61162666606E0299C0EB16
:100BF000014100EB61106066A26E0199C2EB0141F8
:100C000002EB6112A26611140314009132143946EA
:100C1000284600F00CFCBDE8FF810B4DD6E700290B
:100C200000DA4942814209DC002A00DA524282425B
:100C300004DC002B00DA5B42834201DD01207047B7
:100C40000020704700800F4000840F4070B50446BC
:100C50004FF087460025B561092000F0ADF810205F
:100C60006060092000F094F80028FAD0092000F014
:100C7000A3F86560092000F08BF80028FAD009205D
:100C800000F09AF80F206060092000F081F8002839
:100C9000FAD00120B06170BD30B58BB04D4D284603
:100CA00002F050FC4C49886840F030008860486889
:100CB00040F030004860086840F040000860486834
:100CC00040F040004860086840F0800008604868D4
:100CD00040F080004860022000900402019440022D
:100CE0000290002103910491402005900820069075
:100CF000102007900891099103200A906A4628461F
:100D000002F02FFC2846FFF7A1FF3449C0200870ED
:100D1000092000F051F84FF0E020C0F800410BB07E
:100D200030BD70B52E4C0025012661684FF0874319
:100D300004291BD2628852B12346012A1B8810D095
:100D4000022A03D143606580491C616070BD244A5A
:100D5000083232F8112022809E619D6141606680D8
:100D600070BD190A41600220608070BD9E6100BFA5
:100D700000BF00BFDD6100BF00BF00BFDE6170BD0E
:100D800017494A68042A02D300224A60C9E770471B
:100D900000280FDB4109890001F1E021D1F80012A0
:100DA00000F01F0201209040014201D00120704755
:100DB0000020704700207047002809DB00F01F0268
:100DC000012191404009800000F1E020C0F880122C
:100DD0007047000000110E4000000C4009E400E0E4
:100DE0000C00002010B5C0F30E01B1F5804F02DBFE
:100DF000C1F5004109B24FF4C94201FB02F301FB06
:100E000001F242F3CF3202EBC20404EB421403EBD3
:100E100084034A4342F3CF324EF6B32412FB04F468
:100E200003EBC4034A4342F3CF3240F6B70412FB4C
:100E300004F403EB44034A43D11340F6676211FB09
:100E400002F103EB8101C9006FF00042914200D32F
:100E50001146002800DC4942081410BD00F580400E
:100E600000B2BFE710B586B00120019002200290C9
:100E700040F6A66003900821049105905D4C204641
:100E800002F02EF901A9204602F036F905211420BE
:100E900000F09FF8142000F08FF8142000F07FF885
:100EA0000521204602F026F906B010BD70471CB59A
:100EB00003208DF8000004208DF8010005208DF836
:100EC000020006208DF8030001208DF804008DF843
:100ED00005006946484800F0D7FB1CBD1CB5012041
:100EE0008DF800008DF8010040F6A660ADF8020014
:100EF0000F20ADF804006946404800F0A7FA1CBD79
:100F000000B587B040F6A660ADF806000122ADF846
:100F10000A200220ADF80C0040F23330ADF80E008C
:100F200043F6D660ADF8100040F2D111ADF81210C2
:100F3000ADF81400ADF8161047F6F070ADF81800D3
:100F40008DF8042003210B2000F043F80B2000F063
:100F500033F80B2000F023F801A9294800F01EFB0C
:100F600007B000BD1CB550200090012001906846DC
:100F700002F062FB02F074FB02F067FB1CBD10B5CF
:100F8000204802F015FA01220821002001F07DFF1F
:100F900001220821BDE81040002002F051B80028CD
:100FA00009DB00F01F02012191404009800000F19F
:100FB000E020C0F800117047002809DB00F01F0294
:100FC000012191404009800000F1E020C0F880122A
:100FD00070474907090E002804DB00F1E02080F883
:100FE0000014704700F00F0000F1E02080F8141D9D
:100FF0007047000000400C4000D10F4000610F40DE
:1010000000840F4000100E4052480188491C0180A6
:10101000704738B5504D514A0121284600F05CF91F
:101020004E4928465E318B1E0A1F0091012100F0B7
:1010300039F94A4C5A34B4F90430B4F90220B4F9FD
:101040000010B4F94E005A3CFFF7E9FD01004FF0E3
:10105000080006D0B4F8541041F48041A4F85410AC
:10106000A070B4F92C1047F65A32A1F253219142E4
:1010700006D3B4F8541041F48051A4F85410A07071
:10108000B4F8540078B93548FFF7CCFC94F86C00FC
:10109000401CC1B284F86C1029B1002084F86C00A7
:1010A0002E48FFF72BFDB4F856000121C0F3403263
:1010B000284600F0C5F9A17809293CD2DFE801F003
:1010C000050B11171D23292F3500244A012128461D
:1010D00000F010F934E0214A0121284600F024F9FB
:1010E0002EE01E4A0121284600F025F928E01B4A7F
:1010F0000121284600F034F922E0184A012128464F
:1011000000F03FF91CE0154A0121284600F04EF995
:1011100016E0124A0121284600F059F910E00F4A62
:101120000121284600F068F90AE00C4A012128460E
:1011300000F077F904E0094A0121284600F0DAF8C6
:10114000012000F087FD2846BDE83840012100F06D
:10115000A6B870471C00002000840F4098000020B3
:101160002B4D27E00020288002F07AFA00F03EFDA7
:10117000FFF7C8F8274C01212046FFF71DFD204648
:10118000FFF70CF92046FFF76FF92046FFF78FF9BC
:101190002046FFF7AFF92046FFF7C9F92046FFF7D1
:1011A000E1F92046FFF782FA2046FFF701FB2046CF
:1011B000FFF781FB01F0C8F828880428FAD3D1E7AB
:1011C0008EB0342214A101A802F0C2FD72B601F063
:1011D00059F9FFF76CFEFFF781FEFFF791FE00F073
:1011E00022FE00F03EFFFFF743F800F0F6FBFFF7AA
:1011F00053FDFFF737FE62B602F032FA012213A167
:1012000001A802F0F5FC01A800F0A7FEFFF7A8FF77
:101210001C000020980000202020202020202020DA
:1012200020202020202020202020202020202020BE
:1012300020202020202020202020202020202020AE
:1012400020202020202020202020200053746172A4
:10125000742070726F6772616D65202564090000EB
:101260003830400100F184400068C0B2704700B5DA
:1012700002461046FFF7F4FF01280CD13820104435
:10128000400100F184404068012804D1F7498A42B6
:1012900002D1F749086000BDF649086000BD012190
:1012A0004160704770B5049E50F8B81FC468091BB0
:1012B00044680569641B85684069281A11801C8090
:1012C000308070BD10B5029950F8C44F1460426868
:1012D0001A608068086010BD6430C16E9185016835
:1012E000516341689163016F09149183406F001449
:1012F000D08370470021383040F8301C092240F874
:101300002C2C0161C0F89C10C0F8A010C1620163D0
:1013100041648164C1640165416281620162C161AD
:101320008167C167C1657047062181600421C16082
:10133000082181647047052181600121C160042179
:101340008164B2F91810C165B2F91A100166518DA5
:101350008165B2F90A1041650021C0F89410704708
:10136000062181600421C1608164516C41660021C5
:101370008166538D8365B2F90A204265C0F89410E6
:101380007047052181600121C16004218164B2F9A7
:101390001810C165B2F91A100166518D8165B2F954
:1013A0000A1041650021C0F8941070470621816041
:1013B0000421C1608164516C416600218166538DB6
:1013C0008365B2F90A204265C0F894107047052180
:1013D00081600121C16004218164B2F91810C165E6
:1013E000B2F91A100166518D8165B2F90A10416592
:1013F0000021C0F894107047052181600121C1606F
:1014000004218164B2F91810C165B2F91A1001669D
:10141000518D8165B2F90A1041650021C0F8941020
:101420007047002181600922C26081647047009981
:1014300040F8B82F436081607047C0F8D0207047F3
:101440004C30400100F1844002607047F0B500224A
:1014500042620223C3620B78012B41D0C36A23F09E
:101460000403C3624B78012B3FD0C36A23F0080307
:10147000C36282628261C261026240F221534363AD
:101480009B1C43635A230363A52303634FF4A363A5
:10149000C3634260132383604B884361898841643E
:1014A000012505607449714C01444B01724903F1F7
:1014B000844308390144490101F18441A0422DD1FE
:1014C0006E4C266846F03F062660261F376847F0B8
:1014D0003F0737600F68694E3036012F0AD011E0A0
:1014E000C36A43F00403C362BCE7C36A43F0080362
:1014F000C362BEE7276847F040072760376847F0B8
:10150000400737601B68012B32D1236843F080030A
:101510002360336843F08003336029E0584CA042D5
:1015200026D1584C666846F03F066660266846F04D
:101530003F062660A4F501740E68012E0BD1D4F885
:10154000086246F04006C4F80862D4F8386246F0F3
:101550004006C4F838621B68012B09D104F50274F7
:10156000236843F080032360236B43F080032363ED
:10157000382303445B0103F184435B68012B00D1F2
:101580004D608264C2640265426504218165032165
:10159000C165026641660F214162F0BD10B50123AD
:1015A0002C3040F82C3C002240F8242C092440F830
:1015B000204CCC8840F81C4C0C8940F8184C40F862
:1015C000142C026042608260C26002614261C261AA
:1015D00002624C8944628262C26242678267C26769
:1015E000C0F88020026342638263C263CC890464D2
:1015F0008C8944644C8A84640C8AC46402654265A4
:101600008265C265826147F6FF7404664C88446651
:101610008266C0F88420C0F888208C8AC0F88C408C
:101620008C8AC0F89040898AC0F89410C0F898203D
:10163000C0F89C20C0F8A020C0F8A420C0F8A820C2
:10164000C0F8AC20C0F85021C0F85421C0F858218F
:10165000C0F85C21C266C0F86021C0F86421C0F8FF
:101660006821C0F86C2140F8283C10BD00610F4093
:1016700098850F4098810F403C0000C008060C4040
:1016800000600F4004020C402DE9F0410446087947
:10169000802281238225832684274FF0850C002811
:1016A00002D0012808D00EE022656365A565E665D5
:1016B0002766C4F864C006E0A266E366256766672D
:1016C000A767C4F87CC04879F0B3022044F8800FC3
:1016D0006060A060E06020616061803C4B488442B3
:1016E0004AD14A78887842F0C00240EA02200A785B
:1016F000CB7842F0A002120443F0800342EA036276
:10170000104340F0E0009834606120608A780878E7
:1017100042F0E00240EA02204A78CB7842F0C00270
:10172000120443F0800342EA0362104340F0A00039
:101730006060A0600A78487842F0A00240EA022087
:101740008A7842F0E00200E00CE0C978120441F02F
:10175000800142EA0161084340F0C000E06020617E
:10176000983C47E0012044F8800F6060A060E06092
:1017700020616061803CB1E78A78487842F0E002FD
:1017800040EA02200A78CB7842F0A002120443F02B
:10179000800342EA0362104340F0C0009834606165
:1017A00020600A78887842F0A00240EA02204A7855
:1017B000CB7842F0C002120443F0800342EA036295
:1017C000104340F0E0006060A0604A78087842F082
:1017D000C00240EA02208A78C97842F0E00212048E
:1017E00041F0800142EA0161084340F0A000E0605E
:1017F0002061983C00230D221946204601F0DBF8B9
:101800002046BDE8F04101F0E1B8000000D10F40F2
:101810007047704770477047704770477047704710
:10182000704770477047704770477047704700F0C7
:1018300075BB00F05DBB704710B53548FFF771FA16
:10184000BFF34F8F10BD704710B54FF08744012094
:101850006060FFF7DEFB00206060BFF34F8F10BDBC
:1018600070477047704770477047704770477047C0
:1018700010B5FFF7C9FBBFF34F8F10BD704770471E
:1018800070477047704770477047704770477047A0
:101890007047704770477047704770477047704790
:1018A0007047704770477047704770477047704780
:1018B0007047704770477047704770477047704770
:1018C0007047704770477047704770477047704760
:1018D0007047704770477047704770477047704750
:1018E0007047704770477047704770477047704740
:1018F0007047704770477047704770477047704730
:1019000070477047704770477047704770470000D6
:1019100000110E4010B500220121104601F0B5FA69
:1019200001221146002001F08BFB0022022110460B
:1019300001F0ABFA01220221002001F081FB00221C
:101940000421104601F0A1FA01220421002001F037
:1019500077FB00220821104601F097FA01220821A6
:10196000BDE81040002001F06BBB10B5F74C892298
:101970000421204601F0F3F82046BDE81040012183
:1019800001F03AB810B501221146072001F06DFBB5
:1019900001220221072001F068FB01220421072017
:1019A00001F063FB01220821072001F05EFB012208
:1019B0001021042001F059FB01222021042001F014
:1019C00054FB01224021042001F04FFB0122802121
:1019D000BDE81040042001F048BB10B5FFF7D2FF6E
:1019E000FFF7C3FFBDE8104094E770B5D849002366
:1019F0004889401C80B24881B0F57A7F04D34B817E
:101A0000887980F0010088718889401C80B28881C3
:101A1000B0F5FA7F04D38B81C87980F00100C871DA
:101A2000C889401C80B2C881FA2804D3CB81087AC7
:101A300080F001000872C74D4FF001044FF087405D
:101A4000B5F85420160401D504600FE0560402D501
:101A50008A7902600AE0960402D5CA79026005E03C
:101A6000D20402D50A7A026000E003602A78072ACD
:101A700017D2DFE802F00406090C0F12140083608D
:101A800010E00A7A82600DE00A7A82600AE00A7A3F
:101A9000826007E00A7A826004E0846002E083608A
:101AA00000E08360AA4A14325478012C08D11278DD
:101AB0003AB1012A07D0022A08D0032A09D0C3600C
:101AC00070BDC36070BD097AC16070BDC979C16065
:101AD00070BD8979C16070BD2DE9F0418EB00025DF
:101AE00034229DA101A802F033F900F0D9FE04468A
:101AF00000F0E6FD964E3070E4B200F023FA78B1C3
:101B00007078811E8C4202DD801C844208D3747080
:101B100022469EA101A802F06BF801A800F01DFA70
:101B20000127102C01D2B7700BE0F02C08D2103C2A
:101B300004EB84104000E02190FBF1F5143500E047
:101B400096253078DFF85082012806D06842C8F820
:101B50000000B078002418B104E0C8F80050F8E79D
:101B6000C8F8004000F0EEF978B1D8F800203069EC
:101B7000101A00D54042022807DD326187A101A872
:101B800002F036F801A800F0E8F97148401D00782D
:101B9000420870487A30018862F34D3101806C4907
:101BA00014314F70F078327990421AD0CAB90128B6
:101BB00006D0022806D0042806D0082807D008E05E
:101BC0000C7006E00F7004E00220087001E00320B2
:101BD00008700A7876A101A802F00AF801A800F0BE
:101BE000BCF9F07830710EB0BDE8F08110B5FFF7A8
:101BF00073FFBDE81040F8E6554940F247101A312E
:101C00008880704730B5002382780024022A02D0F1
:101C10000C80184630BDB0F93620002A00DA524256
:101C200064256A43B0F92C5092FBF5F292B24A80D7
:101C3000142A0DD3B0F91C00B1F90420904207DC3E
:101C40000888401C80B208800528E2D30123E0E721
:101C50000C80DEE7F0B43E4B14335978814273D1E7
:101C60000020F1B1554A3B4839491C781431544E93
:101C70008978C1F11003B4B1012C26D0344D14354C
:101C8000022C2F79ED7835D0032C48D0308800F520
:101C9000807030807080B080F080F0BC4948FFF7E1
:101CA0006FB8494AE0E7D16AD94081F400413180F8
:101CB000116BD94081F400417180516BD94081F49E
:101CC0000041B180408DF080E7E7028B8A4082F4CA
:101CD00000423280828B8A4082F400427280428BC2
:101CE0008A4082F40042B280C08B884080F4004079
:101CF000F080D2E7C2888A4082F400423280428972
:101D00008A4082F4004171808189A94081F40041B8
:101D1000B180408BB84080F40040F080BDE7D16ACC
:101D2000D94081F400413180418BA94081F40041C8
:101D30007180018BA94081F40041B1804089B84095
:101D400080F40040F080A8E740E0000000D10F40A0
:101D5000200000209800002020202020202020208B
:101D60002020202020202020202020202020202073
:101D70002020202020202020202020202020202063
:101D8000202020202020202020202000414443200B
:101D90003D2025640D0A0000000000207461726778
:101DA00065745F73706431203D2025640D0A000066
:101DB00070646163203D2025640D0A0000840F409B
:101DC0001400002000110E4000800F40F0BC70474E
:101DD00010B50020734C0021734B627802E0195457
:101DE000401CC0B29042FAD92170617010BD6D489C
:101DF0004078632801D2012070470020704769496C
:101E00000878421C0A7068496431095C674801F02F
:101E1000C4BA05E0FFF7EBFF0028FBD1FFF7D8FFBE
:101E2000FFF7EDFFF6E770B55F484FF4E131C830DA
:101E300001600821416000258560C5603021016195
:101E400045615A4E304601F0CFF957493046C83106
:101E500001F0FBF9534C0121A41C21700222A27055
:101E60006170E2702246042001F0ABF82570224632
:101E70000221042001F0A5F801220021042001F034
:101E800009F902220021042001F004F91021304652
:101E900001F00CFB0121304601F0FBFA0121304634
:101EA00001F0EAFA0121304601F0D9FA0121304669
:101EB00001F0C2FA0021304601F000FB402130461B
:101EC00001F002FB304601F005FB0021304601F035
:101ED00006FB4021304601F008FB304601F00CFBC8
:101EE000072000F052F8BDE87040062000F04DB821
:101EF00038B52C4A2C4C2D4811786434635C002B87
:101F000008D0642906D24B1C1370615CBDE83840D0
:101F100001F043BA01F063FA009038BD38B5234CA4
:101F2000204601F05CFA00909DF80000002808D1DE
:101F3000204601F02AFA1B4A51784B1C53701A4A6A
:101F4000505438BD1749184809786430405C00285F
:101F500001D0002070470120704710B50446FFF7FC
:101F6000F1FF002810D000210F4B643302E05A54D7
:101F7000491CC9B2625C002AF9D1002058540949B1
:101F80000870BDE810403AE710BD002809DB00F0FA
:101F90001F02012191404009800000F1E020C0F8BB
:101FA00000117047400000207001002000100E401A
:101FB0000025F74C2078012815D12570F54811210E
:101FC0000171222242718171C27101724272817269
:101FD000C17A491CC1720146022001F049FB01216E
:101FE000022001F0F1FB60780128E3D16570E1E7A0
:101FF000E94900200864704710B501210A2000F06B
:102000009AFF02210A2000F0B9FF012200210A20D4
:1020100001F040F8022200210A2001F03BF80022E2
:1020200001210A2000F048FF00220321BDE81040F2
:102030000A2000F06BBF08B501208DF800000020D9
:102040008DF802008DF801008DF803006A46082122
:10205000032000F0B6FF00220821032000F015FF46
:1020600008BD1FB5CD4803C8CDE90001FFF7C0FF8B
:10207000FFF7E1FFFFF7C0FF684601F064FC0021B5
:10208000022001F08AFBC34C01202060082020734D
:102090002146022001F0ECFA04F1140120680860E6
:1020A0004FF48064204601F0E3FA0121204601F05C
:1020B00074FB00200390600001F0F2FB02E001F0ED
:1020C0006DFC03900398C005F9D5002001F0E8FBF2
:1020D00002E001F063FC03900398C005F9D40020EE
:1020E00001F011FC029840F00200029002A90120C8
:1020F00001F08DFC022001F05BFB522000F03BF967
:10210000029840F48060029002A9012001F07FFC57
:10211000204601F04DFB512000F02DF91FBD08B500
:10212000022001F05FFB0090400502D59849012094
:102130004870022001F07AFBBDE80840022001F05F
:102140004EBC08B5002001F04DFB0090800702D581
:102150008F4901208870002001F068FBBDE808402D
:10216000012001F03CBC002001F039BC884901206D
:102170000870704710B594B050228949684601F044
:10218000E7FD834C241DE088DA2820D1B4F904004F
:10219000214610380A680A2819D2DFE800F00552F3
:1021A00018184A18422E181A0F2A06D17DA168461F
:1021B00001F01EFD6846FFF7D0FE20681F2806D1FB
:1021C0007CA1684601F014FD6846FFF7C6FE14B016
:1021D00010BD2F2A06D17BA1684601F009FD684693
:1021E000FFF7BBFE20683F28F1D17AA1684601F0D5
:1021F000FFFC6846FFF7B1FEE9E74F2A06D179A157
:10220000684601F0F5FC6846FFF7A7FE20685F28E6
:10221000DDD17BA1684601F0EBFC6846FFF79DFE2F
:10222000D5E77EA1684601F0E3FC6846FFF795FE1E
:10223000CDE784A1684601F0DBFC6846FFF78DFE20
:10224000C5E78AA1684601F0D3FC6846FFF785FE22
:10225000BDE710B54E4C241DE088DA283AD1B4F918
:1022600004102046103900680A2933D2DFE801F053
:10227000052E32322A32261B32100F2801D100F0EF
:1022800011FA20681F2825D1BDE8104000F00ABAD5
:102290002F2801D100F0F8F920683F281AD1BDE8B5
:1022A000104000F0F1B94F2801D100F0DFF92068AB
:1022B0005F280FD1BDE8104000F0D8B9BDE810404C
:1022C00000F020BBBDE8104000F00BBBBDE81040A3
:1022D00000F0EFBA10BD10B52E4914310A79002A6A
:1022E0001CD14879DA2819D12A480271DB224271BF
:1022F0008A798271CA79C2710A7A02724A7A427202
:102300008A7A8272C97AC1720146022001F0B0F95C
:102310000121BDE81040022001F056BA10BD1D4851
:102320001B491430091D0279CA7142798A71827978
:102330004A71C2790A71027ACA70427A8A70827AC4
:102340004A70C07A0870704710B511484178012969
:1023500010D1002141700F494FF48060143101F019
:10236000E0F9FFF7DCFFFFF7B6FFFFF772FFBDE80C
:102370001040FFE610BD002809DB00F01F0201211C
:1023800091404009800000F1E020C0F80011704742
:10239000480000205002002000300F40184100008B
:1023A000E442000052454C454153455F4D4F544F68
:1023B000520D0A00454E41424C455F4D4F544F521D
:1023C0000D0A000053504545445F4D4F44450D0AEA
:1023D00000000000504F534954494F4E5F4D4F4449
:1023E000450D0A004142534F4C5554455F504F53E1
:1023F0004954494F4E5F4D4F44450D0A00000000BF
:1024000052454C41544956455F504F534954494FEA
:102410004E5F4D4F44450D0A000000005345545F88
:1024200044495354414E43455F464F525F504F53CA
:102430004954494F4E5F4D4F4445203D2025780D6E
:102440000A0000005345545F4D41585F53504545C5
:10245000445F464F525F504F534954494F4E5F4D72
:102460004F4445203D2025780D0A00005345545F18
:102470005441524745545F5350454544203D202523
:10248000780D0A0010B58CB0002000900121019158
:10249000029103900490059006900790089009908F
:1024A0000A900B90564C6946204600F073FB21467B
:1024B0000A6842F480320A6041F6FF71204600F05B
:1024C000DDFB0321204600F0BAFC0F21204600F07E
:1024D00037FC01220421052000F0C7FD0422002161
:1024E000052000F0D7FD01220821052000F0BDFDE8
:1024F00008220021052000F0CDFD01221021052039
:1025000000F0B3FD10220021052000F0C3FD20469D
:1025100000F036FB01221146204600F092FC3949BA
:10252000A005C1F800010CB010BD10B5344818303A
:102530000068354C400BC00710D06068401E6060DA
:102540000121002000F090FC30B100220121BDE803
:102550001040002000F099BC0122F7E70221002082
:1025600000F082FC40B100220221002000F08DFC2E
:102570006068401C606010BD0122F5E72248406899
:10258000704730B58DB0342220A1684601F0E0FBE1
:102590001D4C207898B96068A168451A6068A060F1
:1025A000E068291A00D54942032908DDE5602A467A
:1025B00023A1684601F01CFB6846FFF7CEFC20789B
:1025C000401C6421B0FBF1F201FB120020700DB041
:1025D000284630BD8EB034220CA101A801F0B8FB12
:1025E000094C616820698842FBD06268226118A1A9
:1025F00001A801F0FDFA01A8FFF7AFFCF1E7000028
:1026000000710F4008E000E054000020202020204E
:1026100020202020202020202020202020202020BA
:1026200020202020202020202020202020202020AA
:1026300020202020202020202020202020000000FA
:1026400076656C6F63697479203D2025640D0A00FE
:1026500053746172742070726F6772616D652025AA
:10266000640D0A000020B34908607047B14A4F2842
:10267000116805D0002802D121F080501060704709
:1026800041F0805010607047AA4A2F28116805D089
:102690003F2802D141F000501060704721F00050F7
:1026A00010607047A34A0F28116805D01F2802D177
:1026B00041F080401060704721F08040106070470A
:1026C0009C480068C0F3C06070479A480068C0F337
:1026D0008070704730B595B05022974901A801F03D
:1026E00037FB944C283CE268D0000A2190FBF1F0C3
:1026F000A06121462078896838B1012818D00025CA
:10270000022853D0032812D190E000290FDD002ABF
:10271000FCDDFFF733FFE061A068606101202070FD
:1027200086A101A801F064FA01A8FFF716FCA4E055
:102730006161FFF723FF2062E169421A500019D05E
:10274000002A01DB104600E05042616A401A400056
:1027500010D0002A01DB104601E0C2F100006062E7
:1027600001DAC2F1000279A101A801F041FA01A841
:10277000FFF7F3FBD4E90710401A00D54042A169E6
:1027800088427AD3022020701020606172A101A8D3
:1027900001F02EFA01A8FFF7E0FB74A101A862691D
:1027A00001F026FA01A8FFF7D8FB66E0FFF7E6FE86
:1027B0002062E169421A500019D0002A01DB10465C
:1027C00000E05042616A401A400010D0002A01DB4C
:1027D000104601E0C2F10000606201DAC2F10002BD
:1027E00065A101A801F004FA01A8FFF7B6FBD4E93E
:1027F0000710401A00D54042E16888423DDB0320C3
:1028000020706561E5600F20FFF74CFF5DA101A816
:1028100001F0EEF901A8FFF7A0FB54A101A862693D
:1028200001F0E6F901A8FFF798FB26E0E560A56056
:102830001F20FFF737FF2570FFF7A0FE2062E16938
:10284000421A500019D0002A01DB104600E0504225
:10285000616A401A400010D0002A01DB104601E0F6
:10286000C2F10000606201DAC2F1000249A101A8D0
:1028700001F0BEF901A8FFF770FB606915B030BD2B
:1028800010B52C482B4C0068A4F12804800002D419
:102890006068206102E0FFF71DFF2061206910BD24
:1028A00010B5FFF7EDFF23490968490000D4002067
:1028B00010BD30B51F4BA3F1280419688D0021F01D
:1028C00000620AD4002802DB60601A6030BD40421A
:1028D000606041F00060186030BD002060601A60E8
:1028E00030BD144909688A001249A1F1280106D5B2
:1028F000002801DB886070474042886070470020F4
:102900008860704730B50B4BA3F1280419688D001F
:1029100021F000620AD5002802DBE0601A6030BDB9
:102920004042E06041F00060186030BD0020E0608F
:102930001A6030BD90000020E44200005354415220
:10294000545F52554E4E494E470D0A0064203D20BB
:1029500025640D0A00000000505245504152455F69
:10296000544F5F53544F500D0A0000007473203DC4
:102970002025640D0A0000006164203D2025640DBF
:102980000A00000053544F505F4D4F544F520D0AF0
:1029900000000000617364203D2025640D0A0000E2
:1029A00010B503688907C90EFF248C40A3438A40F1
:1029B0001A43026010BD1943016040F21111C0F8C2
:1029C000D81042F4CC41C0F8DC10704702214160BD
:1029D000816801F0010141F0800181600021C0F8AF
:1029E000D410704700214160816801F001018160CD
:1029F0006049012008607047002906D0816801F015
:102A0000800141F0010181607047416801F00201DD
:102A100041F0010141607047816801F080018160EF
:102A2000704702460120D268002905D002F001015A
:102A3000002900D00020704702F00201F8E710B52D
:102A4000CA6812014B780C7A43EA04134C68641E7E
:102A500043EA042343F080030978002902D043614C
:102A6000C26110BD0361826110BD40F61F72002972
:102A700003D0416911404161704701691140016112
:102A8000704708B5002200923B4A904206D13B486D
:102A900050F82100006880B2009006E037483030DE
:102AA00050F82100006880B20090009808BD324BB9
:102AB000984205D13148603050F8210002607047DB
:102AC0002E48903050F82100026070470A7840F894
:102AD000802F4A7842608A788260CA78C2600A7918
:102AE000026149794161704730B54A794B788C78F9
:102AF00042EA43128B79204D43EA441342EA03220F
:102B0000CB79CC78A84243EA441342EA03420B7AD9
:102B10000C79097843EA441342EA036205D1174865
:102B2000C03050F82100026030BD1448D83050F851
:102B30002100026030BD082901D3B83030E70429F4
:102B400001D3B4302CE7B0302AE7082901D3C430D0
:102B500026E7042901D3C03022E7BC3020E708294A
:102B600001D3D0301CE7042901D3CC3018E7C8309A
:102B700016E70000A03AFA4300D00F4020410000C1
:102B8000016841F0400101607047016821F0400197
:102B90000160704710B50A685304002A0BD0032A5D
:102BA00009D0072A07D08C8843EA0443032A06D0B9
:102BB000072A04D006E0CC6843EAC413F6E78C6821
:102BC00043EA0423032A02D10C7C43EA0473062A55
:102BD00001D0072A02D10C7D43EA846322B1012A85
:102BE00002D00C7E43EA4463022A01D0032A02D1B8
:102BF0000C7F43EA04632AB1012A03D0022A01D0E0
:102C0000062A02D10C8C43EA8453022A03D0012AFB
:102C100001D0062A02D18C8C43EA4453032A05D002
:102C2000072A03D0022A01D0062A02D18A6A43EA7F
:102C30000233C96A1943016010BD006800F46020C6
:102C4000400C704700B5014601220846FFF7F5FF2A
:102C5000022805D0032803D0062801D0072804D174
:102C6000086840F4006008600022104600BD01685A
:102C700041F48061016070478069704700B5024689
:102C80001046FFF7DAFF022804D0032802D0080418
:102C9000506000BD516000BD00B502461046FFF710
:102CA000CCFF022804D0032802D00804906000BDA5
:102CB000916000BD00B501460846FFF7BEFF02283F
:102CC00004D0032802D08868000C00BD886800BDCD
:102CD00000B501460846FFF7B0FF022804D00328DC
:102CE00002D0C868000C00BDC86800BD00B502462F
:102CF0001046FFF7A2FF022804D0032802D00804E0
:102D0000106100BD116100BD00B501460846FFF726
:102D100094FF022804D0032802D00869000C00BDEB
:102D2000086900BD00B5034601221846FFF785FF7C
:102D3000062801D0072801D159610022104600BDA4
:102D4000C26922F4FE4242EA0121C1617047C069B2
:102D5000000A704700B5024601231046FFF76DFFD9
:102D6000022801D0062805D1D06920F001000843CF
:102D7000D0610023184600BD01460020C96901F05A
:102D80000101002900D00120704710B502460C4611
:102D900001231046FFF7F0FF012806D1D06920F08B
:102DA000020040EA4400D0610023184610BD0146ED
:102DB0000020C96901F00201002900D001207047FC
:102DC00030B502460D4601231046FFF7D5FF0446F5
:102DD0001046FFF7ECFF012C07D130B9D06920F085
:102DE000040040EA8500D0610023184630BD00B5DC
:102DF000014601220846FFF720FF022801D00628DD
:102E000004D1C86940F08000C8610022104600BDAE
:102E100000B5014601220846FFF70FFF022801D046
:102E2000062804D1C86940F04000C861002210465D
:102E300000BD01627047406A7047406A7047816216
:102E40007047012A03D0C26A8A43C2627047C26ACD
:102E50000A43C2627047006B704700009F4951F8F7
:102E600020000068C0B27047024600209B4B53F818
:102E700022201268D2B20A40002A00D001207047F6
:102E8000964A52F820000160704710B50B46FF2BA0
:102E900005D1924B00EBC001343319444B788F4974
:102EA00051F82040FFF7DAFF0AB1184302E0D94396
:102EB000C9B20840206010BDFF2905D1874B00EB47
:102EC000C001343319444979844B53F82000012A56
:102ED00003D0826A8A4382627047826A0A438262AE
:102EE0007047FF2905D17D4B00EBC00134331944F5
:102EF000C9797A4B53F82000012A03D0026B8A4328
:102F000002637047026B0A4302637047FF2905D1D1
:102F1000724B00EBC0013433194489796F4B53F87D
:102F20002000012A03D0C26A8A43C2627047C26A83
:102F30000A43C262704770B5684B00EBC00234337D
:102F4000D418FF2900D16178644A52F82020C84380
:102F5000C5B2002023189B7823B102EB80039E6842
:102F60002E409E60401C0328F4D3207A10B1906B51
:102F70002840906350680843506070BD70B5574B4F
:102F800000EBC0023433D418FF2900D1217A534A10
:102F900052F82020C843C5B2002023189B7823B1E3
:102FA00002EB80039E682E409E60401C0328F4D3F1
:102FB000607810B1506828405060906B084390636F
:102FC00070BD70B505460E4614462278002A02D020
:102FD000012A09D104E031462846FFF7CFFF03E07C
:102FE00031462846FFF7A7FF627832B1012A09D19E
:102FF00031462846FFF78AFF04E000223146284682
:10300000FFF784FFE27832B1012A09D13146284620
:10301000FFF767FF04E0002231462846FFF761FF13
:10302000A27832B1012A0AD131462846BDE8704063
:1030300042E731462846BDE8704000223CE770BDBB
:10304000FF2905D1254B00EBC001343319444978E1
:10305000224B53F82000012A03D042688A43426081
:10306000704742680A4342607047FF2905D11B4BF5
:1030700000EBC00134331944097A184B53F820008F
:10308000012A03D0826B8A4382637047826B0A43B2
:1030900082637047FF2A06D1104B00EBC002343325
:1030A0001A440A4492780D4B53F8200000EB81003B
:1030B0008168114381607047FF2A06D1074B00EBFE
:1030C000C00234331A440A449278044B53F8200067
:1030D00000EB8100816891438160704710420000DD
:1030E000016841F0800101607047016821F08001B2
:1030F0000160704741607047C26822F00F020B68A0
:10310000002B01D04B681A43CB681343C3600A6994
:103110000262896841627047C26822F030020A4345
:10312000C2607047D1E900210A43026170474069DB
:1031300000F007007047816170470162704741628B
:103140007047C06980B27047002902D0C06A80B25F
:103150007047806A80B27047C16821F04001C16049
:103160007047012904D0816821F00801816070470F
:10317000816841F0080181607047012904D08168AD
:1031800021F0200181607047816841F02001816059
:103190007047012904D0816821F080018160704767
:1031A000816841F080018160C16821F08001114394
:1031B000C16070478368012903D023F00101816059
:1031C000704743F0010121F062011143F7E7402904
:1031D00004D0016821F0400101607047016841F0AE
:1031E0004001016070470000016841F00101016089
:1031F000704700220368002900D1022203F0010178
:10320000114301607047016821F0010101607047BE
:1032100002460020D26902F0C002202905D04029D0
:1032200002D1110600D5012070475106FCD50120BE
:103230007047C16901F0FC0141F00202C26101F076
:10324000FC0141F00101C16170472DE9F0410446E4
:103250000F4600250026E06800F0F30000F0BF00F4
:1032600000F0FC017A6978681043084340F00100DF
:10327000E060E06900F0EF01B868084340F0040046
:10328000E061A06847F29F710840F9680143A160BE
:1032900000F0EEFBE1480068C0F302210220884004
:1032A000DF490968B1FBF0F1206800F0020000B1CD
:1032B00049000422642041434FF4AF630AE0DDB1CA
:1032C000681E460002FA06F03E6836014643B1FB2E
:1032D000F6F66D1CA6F1C8009842F0D86423B6FB40
:1032E000F3F0216900EBC00202EB0012B6EB820F93
:1032F00005D121F0400104E04FF00100E4E741F086
:10330000400101F0CF0101F0F001A5F1010505F048
:10331000030241EA021100F00F0242EA010202F048
:103320007F01216112D06FF0180100FB01F006EB64
:103330008000C0F164004FEA0010B0FBF3F008B960
:103340004FF00100616900F00F006061A069396908
:10335000102913D020290AD0E16841F02001E16052
:1033600040F0100000F0FE00A061BDE8F081E168CF
:1033700041F02001E16000F0EF00F3E740F01000C1
:10338000E16801F0DF01E160ECE7816801F08001B4
:1033900049004068C0B208437047C26802F07F022B
:1033A00001F4807342EA5302C260C9B241607047BF
:1033B00000B587B003464FF4E13101910821029135
:1033C0000021039104913022059206911846FFF7DF
:1033D0000BFF01A91846FFF738FF07B000BD0146F3
:1033E0000020896801F01C0104290BD0082907D0AE
:1033F000102903D0002900D0042070470120704715
:103400000220704703207047012904D0C16801F0F1
:10341000EF01C1607047C16841F01001C1607047A1
:103420008269012905D002F07F0101F0FE0181616E
:10343000704742F08001F8E7026B02F01F02012999
:1034400003D002F01E010163704742F001010163E5
:103450007047826902F09F020A4382617047026BE3
:1034600002F01F02012903D002F01D010163704721
:1034700042F0020101637047026B02F01F02012952
:1034800003D002F01B010163704742F004010163A5
:103490007047026B02F01F02012903D002F01701EE
:1034A0000163704742F0080101637047026B02F04C
:1034B0001F0202F0EF020A4302637047026A02F041
:1034C000FC020A4302627047026A02F0BF020A432A
:1034D00002627047016A41F0800101627047426AEE
:1034E00002F4FE720A4342627047426A40F2BF131E
:1034F0001A400A4342627047416A41F080014162CA
:103500007047416A41F4807141627047806A00F0FF
:103510000700704701460020896A090600D501208E
:103520007047C06A00F00700704701460020C96A72
:10353000090600D501207047026822F002020A4302
:1035400002607047016841F0010101607047016845
:1035500021F00101016070474068C0B270474160CE
:10356000704730B5C36803F0F303C360846847F263
:10357000FC431C40D2E900352B430C432343012973
:1035800005D1C3F30904D2E902352B4323438360F9
:10359000836903F09F045369234331B9146A042CEF
:1035A00003D103F0F1041369234303F0FE038361A5
:1035B000C36903F0F70303F0FB04156A93692B4317
:1035C0002343C361036939B903F0CF0101F0F0016E
:1035D000D2E9093423430B4303F07F010161816980
:1035E000D269102A12D0202A09D0C26842F02002E3
:1035F000C26041F0100101F0FE01816130BDC2687E
:1036000042F02002C26001F0EF01F4E741F0100146
:10361000C26802F0DF02C260EDE7000000300F4038
:1036200094000020104A116801F0860101431160E6
:1036300070470E494860704700B503461868FFF7A9
:10364000F1FF58685DF804EBF3E708490120C86111
:10365000704706490020C8610349B120486070479F
:1036600001494E204860704700200F400000E443AD
:103670002DE9F041002301244D7B0A68002D18D06C
:1036800042F000428D7C012D17D022F00052CD7CFB
:10369000012D15D022F080450A7B8E7B012E12D0A1
:1036A00022F010020E8A42EA064634EA00020DD0E9
:1036B00031E0920422F00042E4E742F00052E6E7F3
:1036C00042F08045E8E742F01002EBE7D74A02EB10
:1036D0004312156096600F7991F807C091F8058044
:1036E00047EA0C6791F806C04FEA0C4C4CEA082CEC
:1036F00047EA0C0717610F7A91F80BC091F809801F
:1037000047EA0C6791F80AC04FEA0C4C4CEA082CC7
:1037100047EA0C07976164005B1C202BC5D3BDE80A
:10372000F08130B500220023012434EA000511D0D5
:1037300064005B1C202BF8D31068C0F340738B74BB
:10374000C0F38073CB74C30F4B7320F060400860EC
:1037500023B105E0B54800EB4312EDE7800C0860AB
:10376000906800F00F030B73C0F300138B73000C11
:10377000088200201369C400E3400C182371401C28
:103780000428F7D304209369041FE400E3400C18D5
:103790002371401C0828F6D330BDA54A002903D068
:1037A00011680143116070471168814311607047CF
:1037B0009F4908390A6802430A6070479C490839E2
:1037C0000A6882430A607047012905D09849103180
:1037D0000A6802430A607047954908310A68024343
:1037E0000A60704708B50021009105281CD2DFE867
:1037F00000F003080D1217008D4818300068009083
:1038000012E08B482030006800900DE08848283096
:103810000068009008E0864830300068009003E0BF
:103820008348983000680090009808BD052808D2A9
:10383000DFE800F003080D0D0D007D491831086820
:10384000086070477A4920310868086070477849F5
:103850002831086808607047754A9032012903D002
:10386000116881431160704711680143FAE7017ADA
:1038700001290CD00021437A4268012B0AD021EAA9
:103880000202007840B16A483830026070474FF059
:103890000041F0E70A43F4E76548403002607047B2
:1038A000634A4832116821F40E6101431160704788
:1038B0005F4B48331A68002809D0012806D1012936
:1038C00010D022F4807020F0200018607047012989
:1038D00005D022F4007020F020001860704742F4F8
:1038E0000070F8E742F48070EDE7514A4832116801
:1038F000012805D021F0100020F020001060704752
:1039000041F01000F8E74A4A48321168012805D012
:1039100021F0080020F020001060704741F00800FE
:10392000F8E743494831086840F0020020F02000E1
:10393000086070473E494831086840F0010020F0B7
:103940002000086070470188394A58321160C178F8
:103950004279090141EA0221827811430079012864
:1039600005D021F08000324960310860704741F095
:103970008000F8E72E4AA83211602D49B031086066
:1039800070472B4AA0321268130A03700A707047FE
:1039900040EA00202649A031086070472448503092
:1039A0000068704708B500210091002804D0012864
:1039B00008D0022811D10CE01D4868300068C0B260
:1039C00000900AE01A487830006820F0004000902B
:1039D00003E01748803000680090009808BD002878
:1039E00008D001280CD0022803D111498031086881
:1039F000086070470E4968310868C0B208607047B7
:103A00000B497831086820F0004008607047096869
:103A1000002805D0012802D1054888300160704790
:103A2000C8B2034970310860704700000050004080
:103A3000085400400948804709480047FEE7FEE770
:103A4000FEE7FEE7FEE7FEE7FEE7FEE7FEE7FEE74E
:103A500004480549034A054B70470000CB3A000073
:103A6000C1010000D8020020D8040020D8020020A4
:103A700010B54649D1F8C4204548D1F88021002A24
:103A800003D0D1F8881001B1C00042490968002272
:103A900001F007034049082B15D2DFE803F00406C4
:103AA0000606080B0E11086010BD0A6010BD400824
:103AB000086010BD8008086010BDC008086010BD17
:103AC0000009086010BD0A6010BD10B533480168D8
:103AD00041F4700101603248002404603149C96931
:103AE000002901D1B12141602A484168C1F3130185
:103AF0004160416841F02C614160244901238031DB
:103B00000B62CB6441F88039D1F88420002AFBD1C4
:103B1000C1F8C430D1F8C420012AFBD1C1F8C0409B
:103B20004268C2F313024260426842F07872426017
:103B3000C26822F00102C260C2684BF23C242243F8
:103B4000C260C1F88030D1F88420002AFBD14268DD
:103B5000C2F313024260426842F0FA624260C1F866
:103B60008830C1F88030D1F88420002AFBD1C1F818
:103B700080314FF480310160016821F0070101605C
:103B80000168016040F20311816010BD0000E6434E
:103B90008096980000300F409400002088ED00E0EF
:103BA00000200F400000E44310B54C1084EA530499
:103BB00004D54042C1F1000138BF491E1B4204D563
:103BC0005242C3F1000338BF5B1E00F0F6F814F058
:103BD000804F04D04042C1F1000138BF491E14F0AB
:103BE000004F04D05242C3F1000338BF5B1E10BD2A
:103BF0000FB41CB5074B06AA7B4469460090059894
:103C000000F0B1F90020694600F0C0F91CBC5DF875
:103C100014FB0000910300002DE9F0410E4604461C
:103C2000002020622046E168884730B3252805D06F
:103C3000D4E901219047206A401CF2E7E168204660
:103C400000278847050018D0A5F14100192802D89F
:103C500020354FF400673246294620462760FCF79E
:103C6000E9FA40B1012804D0F61D26F0070608360F
:103C7000D8E7361DD6E72846DAE7206ABDE8F081A6
:103C80002DE9F0410646002410687529314616A535
:103C900010D0AFF30080002802DA404213A507E0FD
:103CA00031688A0701D512A502E0490704D511A59C
:103CB000012401E0AFF3008000210A2206F124076D
:103CC00009E0B0FBF2FCB0FBF2F302FB1C00303069
:103CD00078541846491C0028F3D123462A4630461A
:103CE000BDE8F04100F0E0B8000000002D00000049
:103CF0002B0000002000000070B504460D46214650
:103D00001068AFF300802188090502D50F4A7A4474
:103D100002E00E4A7A440E32002104F1240305E049
:103D200000F00F060009965D5E54491C0028F7D18B
:103D300020780023000704D5702D02D009B102239A
:103D400011322046BDE8704000F0AEB8A705000073
:103D500010B5203AC0F00B80B1E81850203AA0E826
:103D60001850B1E81850A0E81850BFF4F5AF5FEA5A
:103D7000027C24BFB1E81850A0E8185044BF18C90D
:103D800018C0BDE810405FEA827C24BF51F8043BB4
:103D900040F8043B08BF7047D20728BF31F8023B08
:103DA00048BF11F8012B28BF20F8023B48BF00F89C
:103DB000012B704770477047704753EA020C00F0C0
:103DC00069802DE9F04B4FF00006002B1FBFB3FABE
:103DD00083F503FA05F424FA05F65E4012BF164394
:103DE000B2FA82F502FA05F4C5F120051EBF22FAE7
:103DF00005FC44EA0C04203556EA044C4FEA14440E
:103E000018BF641C4FF000084FF00009904271EB9E
:103E1000030C39D3002919BFB1FA81F701FA07F66B
:103E2000B0FA80F700FA07F6C7F120071EBF20FAA4
:103E300007FC46EA0C062037B6FBF4FCA7EB0507A7
:103E4000103F07F01F0BCBF120060CFA0BFB2CFAEE
:103E500006F644BFB3460026202FA4BF5E464FF0AF
:103E6000000B5BEA060C08BF4FF0010B19EB0B09C6
:103E7000ABFB027C48EB0608C01B06FB02CC0BFB2D
:103E800003CC71EB0C01C1E70B46024641464846A4
:103E9000BDE8F08B13B54FF000004FF00001AFF319
:103EA0000080BDE81C4070472DE9F0470D4699465B
:103EB0009246044600F124080168880604D5E069AA
:103EC00021F01001216000E00120A84201DD471B24
:103ED00000E00027A1697A1902EB0900081AA06125
:103EE0002078C00602D42046AFF30080002608E008
:103EF000D4E901211AF806009047206A401C761C7C
:103F000020624E45F4DB2078C0060AD52046AFF388
:103F1000008006E0D4E9012130209047206A401C4F
:103F20002062381EA7F10107F4DC07E0D4E9012183
:103F300018F805009047206A401C2062281EA5F151
:103F40000105F3DC2046AFF300802078000602D59F
:103F50000220BDE8F0870120FBE7000001694A1C50
:103F600002610878704700B58FB0CDE901310021BA
:103F7000059105497944CDE9031011466846FFF7DC
:103F80004BFE0FB000BD0000E5FFFFFF0A6802F81E
:103F9000010B0A607047754600F02CF8AE4605002C
:103FA0006946534620F00700854618B020B5FFF754
:103FB0004FFDBDE820404FF000064FF000074FF0E6
:103FC00000084FF0000B21F00701AC46ACE8C00937
:103FD000ACE8C009ACE8C009ACE8C0098D46704740
:103FE00010B50446AFF300802046BDE81040FCF752
:103FF00038B90000004870477802002001491820B5
:10400000ABBEFEE72600020070474FF04070E1EEC5
:10401000100A70470000500B00109913A1164C199C
:10402000B61BEF1D0020F121C72386253127CB28A1
:10403000552AD12B412DA62E003051319932D9333A
:10404000113542366D379238B039CA3ADE3BED3C15
:10405000F83DFE3E0040FE40F841EF42E243D244CC
:10406000BE45A7468E4771485249304A0C4BE54B36
:10407000BC4C904D624E324F0050CC5096515D5228
:104080002353E853AA546B552A56E756A3575D5855
:104090001659CD59825A375BEA5B9B5C4C5DFB5DE0
:1040A000A85E555F0060AA605361FB61A16247632F
:1040B000EC638F643165D36573661367B1674F68CE
:1040C000EB688769226ABC6A556BED6B846C1B6D6B
:1040D000B16D466EDA6E6D6F007092702371B471BF
:1040E0004372D2726173EE737B74087593751E769A
:1040F000A9763377BC774478CC785379DA79607ACB
:10410000E67A6B7BEF7B737CF77C7A7DFC7D7E7E31
:10411000FF7E807F00800000030005020000000099
:1041200020D00F4024D00F4028D00F402CD00F407B
:1041300030D00F4034D00F4038D00F403CD00F402B
:1041400040D00F4044D00F4048D00F404CD00F40DB
:1041500020D10F4024D10F4028D10F402CD10F4047
:1041600030D10F4034D10F4038D10F403CD10F40F7
:1041700040D10F4044D10F4048D10F404CD10F40A7
:1041800050D00F4054D00F4058D00F405CD00F405B
:1041900060D00F4064D00F4068D00F406CD00F400B
:1041A00070D00F4074D00F4078D00F407CD00F40BB
:1041B00050D10F4054D10F4058D10F405CD10F4027
:1041C00060D10F4064D10F4068D10F406CD10F40D7
:1041D00070D10F4074D10F4078D10F407CD10F4087
:1041E00098D00F409CD00F40A0D00F40A4D00F40DB
:1041F000A8D00F40ACD00F4098D10F409CD10F40B9
:10420000A0D10F40A4D10F40A8D10F40ACD10F4096
:1042100000000C4000010C4000020C4000030C4068
:1042200000040C4000050C4000060C4000070C4048
:1042300000080C4000090C40000A0C40000C0C4027
:10424000000D0C40FFFFFF7000FFFFFFFFFFFFFFAF
:104250000000FFFFFFFFFFFFFF0000FFFFFFFF7FEA
:104260007F7713007F7F7F7FFFFFFF0700FFFFFF48
:10427000FF1F1F1F1C041F1F1F1FFFFFFF0000FF4A
:10428000FFFFFFFFFF000000FFFFFFFFFFFF000039
:1042900000FFFFFFFF030303000003030303030307
:1042A00003000003030303070706030007070707CC
:1042B0000F0F0000000F0F0F0F303132333435363F
:1042C0003738394142434445464030580030313256
:1042D0003334353637383961626364656640307827
:1042E000000000002020202020202020202020204E
:1042F00020202020202020202020202020202020BE
:1043000020202020202020202020202020202020AD
:10431000202020202020202020202020202020209D
:10432000202020202020202020202020202020208D
:1043300020202000544300000000002098000000CE
:10434000FC010000EC430000980000204004000045
:104350001802000000000000000000000000000043
:104360000000000004000000000000000000000049
:10437000000000000000000000000000000000003D
:10438000000000000000000000010000000000002C
:10439000000000000000000000000000010000001C
:1043A000000000000000000000000000000000000D
:1043B00000000000000000000000000000000000FD
:1043C00000000000000000000000000000000000ED
:1043D00000000000000000000000000000000000DD
:0C43E000000000000000000000B4C40455
:0400000500003A3588
:00000001FF
